{
  "_format": "hh-sol-artifact-1",
  "contractName": "ToDoList",
  "sourceName": "contracts/ToDoList.sol",
  "abi": [
    {
      "inputs": [],
      "stateMutability": "nonpayable",
      "type": "constructor"
    },
    {
      "anonymous": false,
      "inputs": [
        {
          "indexed": true,
          "internalType": "address",
          "name": "account",
          "type": "address"
        },
        {
          "indexed": true,
          "internalType": "uint256",
          "name": "userId",
          "type": "uint256"
        },
        {
          "indexed": false,
          "internalType": "string",
          "name": "message",
          "type": "string"
        },
        {
          "indexed": false,
          "internalType": "bool",
          "name": "completed",
          "type": "bool"
        }
      ],
      "name": "ToDoEvent",
      "type": "event"
    },
    {
      "inputs": [],
      "name": "_idUser",
      "outputs": [
        {
          "internalType": "uint256",
          "name": "",
          "type": "uint256"
        }
      ],
      "stateMutability": "view",
      "type": "function"
    },
    {
      "inputs": [
        {
          "internalType": "string",
          "name": "_message",
          "type": "string"
        }
      ],
      "name": "createList",
      "outputs": [],
      "stateMutability": "nonpayable",
      "type": "function"
    },
    {
      "inputs": [
        {
          "internalType": "uint256",
          "name": "",
          "type": "uint256"
        }
      ],
      "name": "creators",
      "outputs": [
        {
          "internalType": "address",
          "name": "",
          "type": "address"
        }
      ],
      "stateMutability": "view",
      "type": "function"
    },
    {
      "inputs": [],
      "name": "getAddress",
      "outputs": [
        {
          "internalType": "address[]",
          "name": "",
          "type": "address[]"
        }
      ],
      "stateMutability": "view",
      "type": "function"
    },
    {
      "inputs": [
        {
          "internalType": "address",
          "name": "_address",
          "type": "address"
        }
      ],
      "name": "getCreatorData",
      "outputs": [
        {
          "internalType": "address",
          "name": "",
          "type": "address"
        },
        {
          "internalType": "uint256",
          "name": "",
          "type": "uint256"
        },
        {
          "internalType": "string",
          "name": "",
          "type": "string"
        },
        {
          "internalType": "bool",
          "name": "",
          "type": "bool"
        }
      ],
      "stateMutability": "view",
      "type": "function"
    },
    {
      "inputs": [],
      "name": "getMessage",
      "outputs": [
        {
          "internalType": "string[]",
          "name": "",
          "type": "string[]"
        }
      ],
      "stateMutability": "view",
      "type": "function"
    },
    {
      "inputs": [
        {
          "internalType": "uint256",
          "name": "",
          "type": "uint256"
        }
      ],
      "name": "messaage",
      "outputs": [
        {
          "internalType": "string",
          "name": "",
          "type": "string"
        }
      ],
      "stateMutability": "view",
      "type": "function"
    },
    {
      "inputs": [
        {
          "internalType": "uint256",
          "name": "",
          "type": "uint256"
        }
      ],
      "name": "messageId",
      "outputs": [
        {
          "internalType": "uint256",
          "name": "",
          "type": "uint256"
        }
      ],
      "stateMutability": "view",
      "type": "function"
    },
    {
      "inputs": [],
      "name": "ownerOfContract",
      "outputs": [
        {
          "internalType": "address",
          "name": "",
          "type": "address"
        }
      ],
      "stateMutability": "view",
      "type": "function"
    },
    {
      "inputs": [
        {
          "internalType": "address",
          "name": "",
          "type": "address"
        }
      ],
      "name": "toDoListApps",
      "outputs": [
        {
          "internalType": "address",
          "name": "account",
          "type": "address"
        },
        {
          "internalType": "uint256",
          "name": "userId",
          "type": "uint256"
        },
        {
          "internalType": "string",
          "name": "message",
          "type": "string"
        },
        {
          "internalType": "bool",
          "name": "completed",
          "type": "bool"
        }
      ],
      "stateMutability": "view",
      "type": "function"
    },
    {
      "inputs": [
        {
          "internalType": "address",
          "name": "_creator",
          "type": "address"
        }
      ],
      "name": "toggle",
      "outputs": [],
      "stateMutability": "nonpayable",
      "type": "function"
    }
  ],
  "bytecode": "0x608060405234801561001057600080fd5b5033600160006101000a81548173ffffffffffffffffffffffffffffffffffffffff021916908373ffffffffffffffffffffffffffffffffffffffff16021790555061134a806100616000396000f3fe608060405234801561001057600080fd5b50600436106100a95760003560e01c8063588f9acc11610071578063588f9acc1461017d57806374310d081461019957806394432cc5146101cc578063b8dcc68f146101ea578063cd53d08e14610206578063ce6d41de14610236576100a9565b80630d64e697146100ae57806321e47d46146100e157806338cc48311461011157806341eee27f1461012f578063468229ae1461015f575b600080fd5b6100c860048036038101906100c39190610a5c565b610254565b6040516100d89493929190610b5c565b60405180910390f35b6100fb60048036038101906100f69190610bd4565b6103d9565b6040516101089190610c01565b60405180910390f35b6101196103fd565b6040516101269190610cda565b60405180910390f35b61014960048036038101906101449190610bd4565b61048b565b6040516101569190610cfc565b60405180910390f35b610167610537565b6040516101749190610d1e565b60405180910390f35b61019760048036038101906101929190610a5c565b61055d565b005b6101b360048036038101906101ae9190610a5c565b6105d2565b6040516101c39493929190610b5c565b60405180910390f35b6101d46106b7565b6040516101e19190610c01565b60405180910390f35b61020460048036038101906101ff9190610d9e565b6106bd565b005b610220600480360381019061021b9190610bd4565b6108c3565b60405161022d9190610d1e565b60405180910390f35b61023e610902565b60405161024b9190610ef7565b60405180910390f35b6000806060600080600560008773ffffffffffffffffffffffffffffffffffffffff1673ffffffffffffffffffffffffffffffffffffffff1681526020019081526020016000206040518060800160405290816000820160009054906101000a900473ffffffffffffffffffffffffffffffffffffffff1673ffffffffffffffffffffffffffffffffffffffff1673ffffffffffffffffffffffffffffffffffffffff1681526020016001820154815260200160028201805461031690610f48565b80601f016020809104026020016040519081016040528092919081815260200182805461034290610f48565b801561038f5780601f106103645761010080835404028352916020019161038f565b820191906000526020600020905b81548152906001019060200180831161037257829003601f168201915b505050505081526020016003820160009054906101000a900460ff161515151581525050905080600001518160200151826040015183606001519450945094509450509193509193565b600481815481106103e957600080fd5b906000526020600020016000915090505481565b6060600280548060200260200160405190810160405280929190818152602001828054801561048157602002820191906000526020600020905b8160009054906101000a900473ffffffffffffffffffffffffffffffffffffffff1673ffffffffffffffffffffffffffffffffffffffff1681526020019060010190808311610437575b5050505050905090565b6003818154811061049b57600080fd5b9060005260206000200160009150905080546104b690610f48565b80601f01602080910402602001604051908101604052809291908181526020018280546104e290610f48565b801561052f5780601f106105045761010080835404028352916020019161052f565b820191906000526020600020905b81548152906001019060200180831161051257829003601f168201915b505050505081565b600160009054906101000a900473ffffffffffffffffffffffffffffffffffffffff1681565b6000600560008373ffffffffffffffffffffffffffffffffffffffff1673ffffffffffffffffffffffffffffffffffffffff16815260200190815260200160002090508060030160009054906101000a900460ff16158160030160006101000a81548160ff0219169083151502179055505050565b60056020528060005260406000206000915090508060000160009054906101000a900473ffffffffffffffffffffffffffffffffffffffff169080600101549080600201805461062190610f48565b80601f016020809104026020016040519081016040528092919081815260200182805461064d90610f48565b801561069a5780601f1061066f5761010080835404028352916020019161069a565b820191906000526020600020905b81548152906001019060200180831161067d57829003601f168201915b5050505050908060030160009054906101000a900460ff16905084565b60005481565b6106c56109db565b6000805490506000600560003373ffffffffffffffffffffffffffffffffffffffff1673ffffffffffffffffffffffffffffffffffffffff1681526020019081526020016000209050338160000160006101000a81548173ffffffffffffffffffffffffffffffffffffffff021916908373ffffffffffffffffffffffffffffffffffffffff160217905550838382600201918261076492919061115f565b5060008160030160006101000a81548160ff0219169083151502179055508181600101819055506002339080600181540180825580915050600190039060005260206000200160009091909190916101000a81548173ffffffffffffffffffffffffffffffffffffffff021916908373ffffffffffffffffffffffffffffffffffffffff160217905550600384849091806001815401808255809150506001900390600052602060002001600090919290919290919290919250918261082b92919061115f565b50600482908060018154018082558091505060019003906000526020600020016000909190919091505580600101543373ffffffffffffffffffffffffffffffffffffffff167f97cb199a6fede85e8843b14a3b82273a76130b0e671f8803ce27aa90d52ee11486868560030160009054906101000a900460ff166040516108b59392919061126b565b60405180910390a350505050565b600281815481106108d357600080fd5b906000526020600020016000915054906101000a900473ffffffffffffffffffffffffffffffffffffffff1681565b60606003805480602002602001604051908101604052809291908181526020016000905b828210156109d257838290600052602060002001805461094590610f48565b80601f016020809104026020016040519081016040528092919081815260200182805461097190610f48565b80156109be5780601f10610993576101008083540402835291602001916109be565b820191906000526020600020905b8154815290600101906020018083116109a157829003601f168201915b505050505081526020019060010190610926565b50505050905090565b6000808154809291906109ed906112cc565b9190505550565b600080fd5b600080fd5b600073ffffffffffffffffffffffffffffffffffffffff82169050919050565b6000610a29826109fe565b9050919050565b610a3981610a1e565b8114610a4457600080fd5b50565b600081359050610a5681610a30565b92915050565b600060208284031215610a7257610a716109f4565b5b6000610a8084828501610a47565b91505092915050565b610a9281610a1e565b82525050565b6000819050919050565b610aab81610a98565b82525050565b600081519050919050565b600082825260208201905092915050565b60005b83811015610aeb578082015181840152602081019050610ad0565b60008484015250505050565b6000601f19601f8301169050919050565b6000610b1382610ab1565b610b1d8185610abc565b9350610b2d818560208601610acd565b610b3681610af7565b840191505092915050565b60008115159050919050565b610b5681610b41565b82525050565b6000608082019050610b716000830187610a89565b610b7e6020830186610aa2565b8181036040830152610b908185610b08565b9050610b9f6060830184610b4d565b95945050505050565b610bb181610a98565b8114610bbc57600080fd5b50565b600081359050610bce81610ba8565b92915050565b600060208284031215610bea57610be96109f4565b5b6000610bf884828501610bbf565b91505092915050565b6000602082019050610c166000830184610aa2565b92915050565b600081519050919050565b600082825260208201905092915050565b6000819050602082019050919050565b610c5181610a1e565b82525050565b6000610c638383610c48565b60208301905092915050565b6000602082019050919050565b6000610c8782610c1c565b610c918185610c27565b9350610c9c83610c38565b8060005b83811015610ccd578151610cb48882610c57565b9750610cbf83610c6f565b925050600181019050610ca0565b5085935050505092915050565b60006020820190508181036000830152610cf48184610c7c565b905092915050565b60006020820190508181036000830152610d168184610b08565b905092915050565b6000602082019050610d336000830184610a89565b92915050565b600080fd5b600080fd5b600080fd5b60008083601f840112610d5e57610d5d610d39565b5b8235905067ffffffffffffffff811115610d7b57610d7a610d3e565b5b602083019150836001820283011115610d9757610d96610d43565b5b9250929050565b60008060208385031215610db557610db46109f4565b5b600083013567ffffffffffffffff811115610dd357610dd26109f9565b5b610ddf85828601610d48565b92509250509250929050565b600081519050919050565b600082825260208201905092915050565b6000819050602082019050919050565b600082825260208201905092915050565b6000610e3382610ab1565b610e3d8185610e17565b9350610e4d818560208601610acd565b610e5681610af7565b840191505092915050565b6000610e6d8383610e28565b905092915050565b6000602082019050919050565b6000610e8d82610deb565b610e978185610df6565b935083602082028501610ea985610e07565b8060005b85811015610ee55784840389528151610ec68582610e61565b9450610ed183610e75565b925060208a01995050600181019050610ead565b50829750879550505050505092915050565b60006020820190508181036000830152610f118184610e82565b905092915050565b7f4e487b7100000000000000000000000000000000000000000000000000000000600052602260045260246000fd5b60006002820490506001821680610f6057607f821691505b602082108103610f7357610f72610f19565b5b50919050565b600082905092915050565b7f4e487b7100000000000000000000000000000000000000000000000000000000600052604160045260246000fd5b60008190508160005260206000209050919050565b60006020601f8301049050919050565b600082821b905092915050565b6000600883026110157fffffffffffffffffffffffffffffffffffffffffffffffffffffffffffffffff82610fd8565b61101f8683610fd8565b95508019841693508086168417925050509392505050565b6000819050919050565b600061105c61105761105284610a98565b611037565b610a98565b9050919050565b6000819050919050565b61107683611041565b61108a61108282611063565b848454610fe5565b825550505050565b600090565b61109f611092565b6110aa81848461106d565b505050565b5b818110156110ce576110c3600082611097565b6001810190506110b0565b5050565b601f821115611113576110e481610fb3565b6110ed84610fc8565b810160208510156110fc578190505b61111061110885610fc8565b8301826110af565b50505b505050565b600082821c905092915050565b600061113660001984600802611118565b1980831691505092915050565b600061114f8383611125565b9150826002028217905092915050565b6111698383610f79565b67ffffffffffffffff81111561118257611181610f84565b5b61118c8254610f48565b6111978282856110d2565b6000601f8311600181146111c657600084156111b4578287013590505b6111be8582611143565b865550611226565b601f1984166111d486610fb3565b60005b828110156111fc578489013582556001820191506020850194506020810190506111d7565b868310156112195784890135611215601f891682611125565b8355505b6001600288020188555050505b50505050505050565b82818337600083830152505050565b600061124a8385610abc565b935061125783858461122f565b61126083610af7565b840190509392505050565b6000604082019050818103600083015261128681858761123e565b90506112956020830184610b4d565b949350505050565b7f4e487b7100000000000000000000000000000000000000000000000000000000600052601160045260246000fd5b60006112d782610a98565b91507fffffffffffffffffffffffffffffffffffffffffffffffffffffffffffffffff82036113095761130861129d565b5b60018201905091905056fea2646970667358221220eaa970d2dae898beb489bcc23351ce0ad96074f6a4bafaf04c29035c28cacdda64736f6c63430008110033",
  "linkReferences": {},
  "deployedLinkReferences": {}
}